{
  "_format": "hh-sol-artifact-1",
  "contractName": "RealEstateMarketplace",
  "sourceName": "contracts/RealEstateMarketplace.sol",
  "abi": [
    {
      "inputs": [],
      "stateMutability": "nonpayable",
      "type": "constructor"
    },
    {
      "inputs": [
        {
          "internalType": "address",
          "name": "sender",
          "type": "address"
        },
        {
          "internalType": "uint256",
          "name": "tokenId",
          "type": "uint256"
        },
        {
          "internalType": "address",
          "name": "owner",
          "type": "address"
        }
      ],
      "name": "ERC721IncorrectOwner",
      "type": "error"
    },
    {
      "inputs": [
        {
          "internalType": "address",
          "name": "operator",
          "type": "address"
        },
        {
          "internalType": "uint256",
          "name": "tokenId",
          "type": "uint256"
        }
      ],
      "name": "ERC721InsufficientApproval",
      "type": "error"
    },
    {
      "inputs": [
        {
          "internalType": "address",
          "name": "approver",
          "type": "address"
        }
      ],
      "name": "ERC721InvalidApprover",
      "type": "error"
    },
    {
      "inputs": [
        {
          "internalType": "address",
          "name": "operator",
          "type": "address"
        }
      ],
      "name": "ERC721InvalidOperator",
      "type": "error"
    },
    {
      "inputs": [
        {
          "internalType": "address",
          "name": "owner",
          "type": "address"
        }
      ],
      "name": "ERC721InvalidOwner",
      "type": "error"
    },
    {
      "inputs": [
        {
          "internalType": "address",
          "name": "receiver",
          "type": "address"
        }
      ],
      "name": "ERC721InvalidReceiver",
      "type": "error"
    },
    {
      "inputs": [
        {
          "internalType": "address",
          "name": "sender",
          "type": "address"
        }
      ],
      "name": "ERC721InvalidSender",
      "type": "error"
    },
    {
      "inputs": [
        {
          "internalType": "uint256",
          "name": "tokenId",
          "type": "uint256"
        }
      ],
      "name": "ERC721NonexistentToken",
      "type": "error"
    },
    {
      "anonymous": false,
      "inputs": [
        {
          "indexed": true,
          "internalType": "address",
          "name": "owner",
          "type": "address"
        },
        {
          "indexed": true,
          "internalType": "address",
          "name": "approved",
          "type": "address"
        },
        {
          "indexed": true,
          "internalType": "uint256",
          "name": "tokenId",
          "type": "uint256"
        }
      ],
      "name": "Approval",
      "type": "event"
    },
    {
      "anonymous": false,
      "inputs": [
        {
          "indexed": true,
          "internalType": "address",
          "name": "owner",
          "type": "address"
        },
        {
          "indexed": true,
          "internalType": "address",
          "name": "operator",
          "type": "address"
        },
        {
          "indexed": false,
          "internalType": "bool",
          "name": "approved",
          "type": "bool"
        }
      ],
      "name": "ApprovalForAll",
      "type": "event"
    },
    {
      "anonymous": false,
      "inputs": [
        {
          "indexed": false,
          "internalType": "uint256",
          "name": "_fromTokenId",
          "type": "uint256"
        },
        {
          "indexed": false,
          "internalType": "uint256",
          "name": "_toTokenId",
          "type": "uint256"
        }
      ],
      "name": "BatchMetadataUpdate",
      "type": "event"
    },
    {
      "anonymous": false,
      "inputs": [
        {
          "indexed": false,
          "internalType": "uint256",
          "name": "_tokenId",
          "type": "uint256"
        }
      ],
      "name": "MetadataUpdate",
      "type": "event"
    },
    {
      "anonymous": false,
      "inputs": [
        {
          "indexed": true,
          "internalType": "uint256",
          "name": "id",
          "type": "uint256"
        },
        {
          "indexed": false,
          "internalType": "uint256",
          "name": "price",
          "type": "uint256"
        },
        {
          "indexed": false,
          "internalType": "string",
          "name": "location",
          "type": "string"
        },
        {
          "indexed": false,
          "internalType": "address",
          "name": "owner",
          "type": "address"
        },
        {
          "indexed": false,
          "internalType": "address",
          "name": "seller",
          "type": "address"
        },
        {
          "indexed": false,
          "internalType": "bool",
          "name": "currentlyListed",
          "type": "bool"
        }
      ],
      "name": "PropertyListedSuccess",
      "type": "event"
    },
    {
      "anonymous": false,
      "inputs": [
        {
          "indexed": true,
          "internalType": "uint256",
          "name": "id",
          "type": "uint256"
        },
        {
          "indexed": false,
          "internalType": "address",
          "name": "oldOwner",
          "type": "address"
        },
        {
          "indexed": false,
          "internalType": "address",
          "name": "newOwner",
          "type": "address"
        },
        {
          "indexed": false,
          "internalType": "uint256",
          "name": "price",
          "type": "uint256"
        }
      ],
      "name": "PropertySoldSuccess",
      "type": "event"
    },
    {
      "anonymous": false,
      "inputs": [
        {
          "indexed": true,
          "internalType": "address",
          "name": "from",
          "type": "address"
        },
        {
          "indexed": true,
          "internalType": "address",
          "name": "to",
          "type": "address"
        },
        {
          "indexed": true,
          "internalType": "uint256",
          "name": "tokenId",
          "type": "uint256"
        }
      ],
      "name": "Transfer",
      "type": "event"
    },
    {
      "inputs": [
        {
          "internalType": "address",
          "name": "to",
          "type": "address"
        },
        {
          "internalType": "uint256",
          "name": "tokenId",
          "type": "uint256"
        }
      ],
      "name": "approve",
      "outputs": [],
      "stateMutability": "nonpayable",
      "type": "function"
    },
    {
      "inputs": [
        {
          "internalType": "address",
          "name": "owner",
          "type": "address"
        }
      ],
      "name": "balanceOf",
      "outputs": [
        {
          "internalType": "uint256",
          "name": "",
          "type": "uint256"
        }
      ],
      "stateMutability": "view",
      "type": "function"
    },
    {
      "inputs": [
        {
          "internalType": "uint256",
          "name": "tokenId",
          "type": "uint256"
        }
      ],
      "name": "buyProperty",
      "outputs": [],
      "stateMutability": "payable",
      "type": "function"
    },
    {
      "inputs": [
        {
          "internalType": "uint256",
          "name": "tokenId",
          "type": "uint256"
        }
      ],
      "name": "delistProperty",
      "outputs": [],
      "stateMutability": "nonpayable",
      "type": "function"
    },
    {
      "inputs": [],
      "name": "getAllListedProperties",
      "outputs": [
        {
          "components": [
            {
              "internalType": "uint256",
              "name": "id",
              "type": "uint256"
            },
            {
              "internalType": "uint256",
              "name": "price",
              "type": "uint256"
            },
            {
              "internalType": "string",
              "name": "location",
              "type": "string"
            },
            {
              "internalType": "address payable",
              "name": "owner",
              "type": "address"
            },
            {
              "internalType": "address payable",
              "name": "seller",
              "type": "address"
            },
            {
              "internalType": "bool",
              "name": "currentlyListed",
              "type": "bool"
            }
          ],
          "internalType": "struct RealEstateMarketplace.Property[]",
          "name": "",
          "type": "tuple[]"
        }
      ],
      "stateMutability": "view",
      "type": "function"
    },
    {
      "inputs": [
        {
          "internalType": "uint256",
          "name": "tokenId",
          "type": "uint256"
        }
      ],
      "name": "getApproved",
      "outputs": [
        {
          "internalType": "address",
          "name": "",
          "type": "address"
        }
      ],
      "stateMutability": "view",
      "type": "function"
    },
    {
      "inputs": [],
      "name": "getMyProperties",
      "outputs": [
        {
          "components": [
            {
              "internalType": "uint256",
              "name": "id",
              "type": "uint256"
            },
            {
              "internalType": "uint256",
              "name": "price",
              "type": "uint256"
            },
            {
              "internalType": "string",
              "name": "location",
              "type": "string"
            },
            {
              "internalType": "address payable",
              "name": "owner",
              "type": "address"
            },
            {
              "internalType": "address payable",
              "name": "seller",
              "type": "address"
            },
            {
              "internalType": "bool",
              "name": "currentlyListed",
              "type": "bool"
            }
          ],
          "internalType": "struct RealEstateMarketplace.Property[]",
          "name": "",
          "type": "tuple[]"
        }
      ],
      "stateMutability": "view",
      "type": "function"
    },
    {
      "inputs": [
        {
          "internalType": "uint256",
          "name": "tokenId",
          "type": "uint256"
        }
      ],
      "name": "getPropertyDetails",
      "outputs": [
        {
          "components": [
            {
              "internalType": "uint256",
              "name": "id",
              "type": "uint256"
            },
            {
              "internalType": "uint256",
              "name": "price",
              "type": "uint256"
            },
            {
              "internalType": "string",
              "name": "location",
              "type": "string"
            },
            {
              "internalType": "address payable",
              "name": "owner",
              "type": "address"
            },
            {
              "internalType": "address payable",
              "name": "seller",
              "type": "address"
            },
            {
              "internalType": "bool",
              "name": "currentlyListed",
              "type": "bool"
            }
          ],
          "internalType": "struct RealEstateMarketplace.Property",
          "name": "",
          "type": "tuple"
        }
      ],
      "stateMutability": "view",
      "type": "function"
    },
    {
      "inputs": [
        {
          "internalType": "address",
          "name": "owner",
          "type": "address"
        },
        {
          "internalType": "address",
          "name": "operator",
          "type": "address"
        }
      ],
      "name": "isApprovedForAll",
      "outputs": [
        {
          "internalType": "bool",
          "name": "",
          "type": "bool"
        }
      ],
      "stateMutability": "view",
      "type": "function"
    },
    {
      "inputs": [
        {
          "internalType": "string",
          "name": "tokenURI",
          "type": "string"
        },
        {
          "internalType": "uint256",
          "name": "price",
          "type": "uint256"
        },
        {
          "internalType": "string",
          "name": "location",
          "type": "string"
        }
      ],
      "name": "mintAndListProperty",
      "outputs": [
        {
          "internalType": "uint256",
          "name": "",
          "type": "uint256"
        }
      ],
      "stateMutability": "nonpayable",
      "type": "function"
    },
    {
      "inputs": [],
      "name": "name",
      "outputs": [
        {
          "internalType": "string",
          "name": "",
          "type": "string"
        }
      ],
      "stateMutability": "view",
      "type": "function"
    },
    {
      "inputs": [
        {
          "internalType": "address",
          "name": "",
          "type": "address"
        },
        {
          "internalType": "address",
          "name": "",
          "type": "address"
        },
        {
          "internalType": "uint256",
          "name": "",
          "type": "uint256"
        },
        {
          "internalType": "bytes",
          "name": "",
          "type": "bytes"
        }
      ],
      "name": "onERC721Received",
      "outputs": [
        {
          "internalType": "bytes4",
          "name": "",
          "type": "bytes4"
        }
      ],
      "stateMutability": "pure",
      "type": "function"
    },
    {
      "inputs": [
        {
          "internalType": "uint256",
          "name": "tokenId",
          "type": "uint256"
        }
      ],
      "name": "ownerOf",
      "outputs": [
        {
          "internalType": "address",
          "name": "",
          "type": "address"
        }
      ],
      "stateMutability": "view",
      "type": "function"
    },
    {
      "inputs": [
        {
          "internalType": "address",
          "name": "from",
          "type": "address"
        },
        {
          "internalType": "address",
          "name": "to",
          "type": "address"
        },
        {
          "internalType": "uint256",
          "name": "tokenId",
          "type": "uint256"
        }
      ],
      "name": "safeTransferFrom",
      "outputs": [],
      "stateMutability": "nonpayable",
      "type": "function"
    },
    {
      "inputs": [
        {
          "internalType": "address",
          "name": "from",
          "type": "address"
        },
        {
          "internalType": "address",
          "name": "to",
          "type": "address"
        },
        {
          "internalType": "uint256",
          "name": "tokenId",
          "type": "uint256"
        },
        {
          "internalType": "bytes",
          "name": "data",
          "type": "bytes"
        }
      ],
      "name": "safeTransferFrom",
      "outputs": [],
      "stateMutability": "nonpayable",
      "type": "function"
    },
    {
      "inputs": [
        {
          "internalType": "address",
          "name": "operator",
          "type": "address"
        },
        {
          "internalType": "bool",
          "name": "approved",
          "type": "bool"
        }
      ],
      "name": "setApprovalForAll",
      "outputs": [],
      "stateMutability": "nonpayable",
      "type": "function"
    },
    {
      "inputs": [
        {
          "internalType": "bytes4",
          "name": "interfaceId",
          "type": "bytes4"
        }
      ],
      "name": "supportsInterface",
      "outputs": [
        {
          "internalType": "bool",
          "name": "",
          "type": "bool"
        }
      ],
      "stateMutability": "view",
      "type": "function"
    },
    {
      "inputs": [],
      "name": "symbol",
      "outputs": [
        {
          "internalType": "string",
          "name": "",
          "type": "string"
        }
      ],
      "stateMutability": "view",
      "type": "function"
    },
    {
      "inputs": [
        {
          "internalType": "uint256",
          "name": "tokenId",
          "type": "uint256"
        }
      ],
      "name": "tokenURI",
      "outputs": [
        {
          "internalType": "string",
          "name": "",
          "type": "string"
        }
      ],
      "stateMutability": "view",
      "type": "function"
    },
    {
      "inputs": [
        {
          "internalType": "address",
          "name": "from",
          "type": "address"
        },
        {
          "internalType": "address",
          "name": "to",
          "type": "address"
        },
        {
          "internalType": "uint256",
          "name": "tokenId",
          "type": "uint256"
        }
      ],
      "name": "transferFrom",
      "outputs": [],
      "stateMutability": "nonpayable",
      "type": "function"
    }
  ],
  "bytecode": "0x608060405234801561000f575f5ffd5b506040518060400160405280600d81526020017f5265616c4573746174654e4654000000000000000000000000000000000000008152506040518060400160405280600581526020017f52454e4654000000000000000000000000000000000000000000000000000000815250815f908161008a91906102df565b50806001908161009a91906102df565b5050506103ae565b5f81519050919050565b7f4e487b71000000000000000000000000000000000000000000000000000000005f52604160045260245ffd5b7f4e487b71000000000000000000000000000000000000000000000000000000005f52602260045260245ffd5b5f600282049050600182168061011d57607f821691505b6020821081036101305761012f6100d9565b5b50919050565b5f819050815f5260205f209050919050565b5f6020601f8301049050919050565b5f82821b905092915050565b5f600883026101927fffffffffffffffffffffffffffffffffffffffffffffffffffffffffffffffff82610157565b61019c8683610157565b95508019841693508086168417925050509392505050565b5f819050919050565b5f819050919050565b5f6101e06101db6101d6846101b4565b6101bd565b6101b4565b9050919050565b5f819050919050565b6101f9836101c6565b61020d610205826101e7565b848454610163565b825550505050565b5f5f905090565b610224610215565b61022f8184846101f0565b505050565b5b81811015610252576102475f8261021c565b600181019050610235565b5050565b601f8211156102975761026881610136565b61027184610148565b81016020851015610280578190505b61029461028c85610148565b830182610234565b50505b505050565b5f82821c905092915050565b5f6102b75f198460080261029c565b1980831691505092915050565b5f6102cf83836102a8565b9150826002028217905092915050565b6102e8826100a2565b67ffffffffffffffff811115610301576103006100ac565b5b61030b8254610106565b610316828285610256565b5f60209050601f831160018114610347575f8415610335578287015190505b61033f85826102c4565b8655506103a6565b601f19841661035586610136565b5f5b8281101561037c57848901518255600182019150602085019450602081019050610357565b868310156103995784890151610395601f8916826102a8565b8355505b6001600288020188555050505b505050505050565b613dd8806103bb5f395ff3fe60806040526004361061011e575f3560e01c80636352211e1161009f578063a1e2305f11610063578063a1e2305f14610400578063a22cb4651461042a578063b88d4fde14610452578063c87b56dd1461047a578063e985e9c5146104b65761011e565b80636352211e146103065780636e723c22146103425780636fa830a61461037e57806370a082311461039a57806395d89b41146103d65761011e565b8063150b7a02116100e6578063150b7a02146102285780631cc2ea7a1461026457806323b872dd1461028c578063397f7952146102b457806342842e0e146102de5761011e565b806301ffc9a71461012257806306fdde031461015e578063081812fc14610188578063095ea7b3146101c4578063126dbe43146101ec575b5f5ffd5b34801561012d575f5ffd5b5061014860048036038101906101439190612b01565b6104f2565b6040516101559190612b46565b60405180910390f35b348015610169575f5ffd5b50610172610552565b60405161017f9190612bcf565b60405180910390f35b348015610193575f5ffd5b506101ae60048036038101906101a99190612c22565b6105e1565b6040516101bb9190612c8c565b60405180910390f35b3480156101cf575f5ffd5b506101ea60048036038101906101e59190612ccf565b6105fc565b005b3480156101f7575f5ffd5b50610212600480360381019061020d9190612c22565b610612565b60405161021f9190612e19565b60405180910390f35b348015610233575f5ffd5b5061024e60048036038101906102499190612e9a565b6107a5565b60405161025b9190612f2d565b60405180910390f35b34801561026f575f5ffd5b5061028a60048036038101906102859190612c22565b6107b9565b005b348015610297575f5ffd5b506102b260048036038101906102ad9190612f46565b610999565b005b3480156102bf575f5ffd5b506102c8610a98565b6040516102d591906130d7565b60405180910390f35b3480156102e9575f5ffd5b5061030460048036038101906102ff9190612f46565b610eab565b005b348015610311575f5ffd5b5061032c60048036038101906103279190612c22565b610eca565b6040516103399190612c8c565b60405180910390f35b34801561034d575f5ffd5b506103686004803603810190610363919061321f565b610edb565b60405161037591906132b6565b60405180910390f35b61039860048036038101906103939190612c22565b6110df565b005b3480156103a5575f5ffd5b506103c060048036038101906103bb91906132cf565b611396565b6040516103cd91906132b6565b60405180910390f35b3480156103e1575f5ffd5b506103ea61144c565b6040516103f79190612bcf565b60405180910390f35b34801561040b575f5ffd5b506104146114dc565b60405161042191906130d7565b60405180910390f35b348015610435575f5ffd5b50610450600480360381019061044b9190613324565b61179d565b005b34801561045d575f5ffd5b5061047860048036038101906104739190613400565b6117b3565b005b348015610485575f5ffd5b506104a0600480360381019061049b9190612c22565b6117d8565b6040516104ad9190612bcf565b60405180910390f35b3480156104c1575f5ffd5b506104dc60048036038101906104d79190613480565b611854565b6040516104e99190612b46565b60405180910390f35b5f634906490660e01b7bffffffffffffffffffffffffffffffffffffffffffffffffffffffff1916827bffffffffffffffffffffffffffffffffffffffffffffffffffffffff1916148061054b575061054a826118e2565b5b9050919050565b60605f8054610560906134eb565b80601f016020809104026020016040519081016040528092919081815260200182805461058c906134eb565b80156105d75780601f106105ae576101008083540402835291602001916105d7565b820191905f5260205f20905b8154815290600101906020018083116105ba57829003601f168201915b5050505050905090565b5f6105eb826119c3565b506105f582611a49565b9050919050565b61060e8282610609611a82565b611a89565b5050565b61061a612a3c565b60085f8381526020019081526020015f206040518060c00160405290815f820154815260200160018201548152602001600282018054610659906134eb565b80601f0160208091040260200160405190810160405280929190818152602001828054610685906134eb565b80156106d05780601f106106a7576101008083540402835291602001916106d0565b820191905f5260205f20905b8154815290600101906020018083116106b357829003601f168201915b50505050508152602001600382015f9054906101000a900473ffffffffffffffffffffffffffffffffffffffff1673ffffffffffffffffffffffffffffffffffffffff1673ffffffffffffffffffffffffffffffffffffffff168152602001600482015f9054906101000a900473ffffffffffffffffffffffffffffffffffffffff1673ffffffffffffffffffffffffffffffffffffffff1673ffffffffffffffffffffffffffffffffffffffff1681526020016004820160149054906101000a900460ff1615151515815250509050919050565b5f63150b7a0260e01b905095945050505050565b3373ffffffffffffffffffffffffffffffffffffffff1660085f8381526020019081526020015f206004015f9054906101000a900473ffffffffffffffffffffffffffffffffffffffff1673ffffffffffffffffffffffffffffffffffffffff161461085a576040517f08c379a000000000000000000000000000000000000000000000000000000000815260040161085190613565565b60405180910390fd5b60085f8281526020019081526020015f2060040160149054906101000a900460ff166108bb576040517f08c379a00000000000000000000000000000000000000000000000000000000081526004016108b2906135cd565b60405180910390fd5b5f60085f8381526020019081526020015f2060040160146101000a81548160ff0219169083151502179055503360085f8381526020019081526020015f206003015f6101000a81548173ffffffffffffffffffffffffffffffffffffffff021916908373ffffffffffffffffffffffffffffffffffffffff1602179055505f60085f8381526020019081526020015f206004015f6101000a81548173ffffffffffffffffffffffffffffffffffffffff021916908373ffffffffffffffffffffffffffffffffffffffff160217905550610996303383611a9b565b50565b5f73ffffffffffffffffffffffffffffffffffffffff168273ffffffffffffffffffffffffffffffffffffffff1603610a09575f6040517f64a0ae92000000000000000000000000000000000000000000000000000000008152600401610a009190612c8c565b60405180910390fd5b5f610a1c8383610a17611a82565b611c03565b90508373ffffffffffffffffffffffffffffffffffffffff168173ffffffffffffffffffffffffffffffffffffffff1614610a92578382826040517f64283d7b000000000000000000000000000000000000000000000000000000008152600401610a89939291906135eb565b60405180910390fd5b50505050565b60605f60075490505f5f90505f600190505b828111610ba3573373ffffffffffffffffffffffffffffffffffffffff1660085f8381526020019081526020015f206003015f9054906101000a900473ffffffffffffffffffffffffffffffffffffffff1673ffffffffffffffffffffffffffffffffffffffff161480610b7c57503373ffffffffffffffffffffffffffffffffffffffff1660085f8381526020019081526020015f206004015f9054906101000a900473ffffffffffffffffffffffffffffffffffffffff1673ffffffffffffffffffffffffffffffffffffffff16145b15610b90578180610b8c9061364d565b9250505b8080610b9b9061364d565b915050610aaa565b505f8167ffffffffffffffff811115610bbf57610bbe6130fb565b5b604051908082528060200260200182016040528015610bf857816020015b610be5612a3c565b815260200190600190039081610bdd5790505b5090505f5f90505f600190505b848111610ea0573373ffffffffffffffffffffffffffffffffffffffff1660085f8381526020019081526020015f206003015f9054906101000a900473ffffffffffffffffffffffffffffffffffffffff1673ffffffffffffffffffffffffffffffffffffffff161480610cd757503373ffffffffffffffffffffffffffffffffffffffff1660085f8381526020019081526020015f206004015f9054906101000a900473ffffffffffffffffffffffffffffffffffffffff1673ffffffffffffffffffffffffffffffffffffffff16145b15610e8d5760085f8281526020019081526020015f206040518060c00160405290815f820154815260200160018201548152602001600282018054610d1b906134eb565b80601f0160208091040260200160405190810160405280929190818152602001828054610d47906134eb565b8015610d925780601f10610d6957610100808354040283529160200191610d92565b820191905f5260205f20905b815481529060010190602001808311610d7557829003601f168201915b50505050508152602001600382015f9054906101000a900473ffffffffffffffffffffffffffffffffffffffff1673ffffffffffffffffffffffffffffffffffffffff1673ffffffffffffffffffffffffffffffffffffffff168152602001600482015f9054906101000a900473ffffffffffffffffffffffffffffffffffffffff1673ffffffffffffffffffffffffffffffffffffffff1673ffffffffffffffffffffffffffffffffffffffff1681526020016004820160149054906101000a900460ff161515151581525050838381518110610e7357610e72613694565b5b60200260200101819052508180610e899061364d565b9250505b8080610e989061364d565b915050610c05565b508194505050505090565b610ec583838360405180602001604052805f8152506117b3565b505050565b5f610ed4826119c3565b9050919050565b5f5f8311610f1e576040517f08c379a0000000000000000000000000000000000000000000000000000000008152600401610f159061370b565b60405180910390fd5b60075f815480929190610f309061364d565b91905055505f6007549050610f453082611e0e565b610f4f8186611e2b565b6040518060c001604052808281526020018581526020018481526020013073ffffffffffffffffffffffffffffffffffffffff1681526020013373ffffffffffffffffffffffffffffffffffffffff1681526020016001151581525060085f8381526020019081526020015f205f820151815f0155602082015181600101556040820151816002019081610fe391906138c9565b506060820151816003015f6101000a81548173ffffffffffffffffffffffffffffffffffffffff021916908373ffffffffffffffffffffffffffffffffffffffff1602179055506080820151816004015f6101000a81548173ffffffffffffffffffffffffffffffffffffffff021916908373ffffffffffffffffffffffffffffffffffffffff16021790555060a08201518160040160146101000a81548160ff021916908315150217905550905050807f1da99f2eaf57815853c5da405e7f890db50a6841631d6c0d67499929ae761a748585303360016040516110cc959493929190613998565b60405180910390a2809150509392505050565b60085f8281526020019081526020015f2060040160149054906101000a900460ff16611140576040517f08c379a000000000000000000000000000000000000000000000000000000000815260040161113790613a3a565b60405180910390fd5b5f60085f8381526020019081526020015f2060010154905080341461119a576040517f08c379a000000000000000000000000000000000000000000000000000000000815260040161119190613ac8565b60405180910390fd5b5f60085f8481526020019081526020015f206004015f9054906101000a900473ffffffffffffffffffffffffffffffffffffffff1690505f60085f8581526020019081526020015f2060040160146101000a81548160ff0219169083151502179055505f60085f8581526020019081526020015f206004015f6101000a81548173ffffffffffffffffffffffffffffffffffffffff021916908373ffffffffffffffffffffffffffffffffffffffff1602179055503360085f8581526020019081526020015f206003015f6101000a81548173ffffffffffffffffffffffffffffffffffffffff021916908373ffffffffffffffffffffffffffffffffffffffff1602179055506112ac303385611a9b565b5f8173ffffffffffffffffffffffffffffffffffffffff16346040516112d190613b13565b5f6040518083038185875af1925050503d805f811461130b576040519150601f19603f3d011682016040523d82523d5f602084013e611310565b606091505b5050905080611354576040517f08c379a000000000000000000000000000000000000000000000000000000000815260040161134b90613b71565b60405180910390fd5b837f13936729955e2e2c70ba10601535bffd2daea0a3db6193739bc3b86532ea95ca83338660405161138893929190613be1565b60405180910390a250505050565b5f5f73ffffffffffffffffffffffffffffffffffffffff168273ffffffffffffffffffffffffffffffffffffffff1603611407575f6040517f89c62b640000000000000000000000000000000000000000000000000000000081526004016113fe9190612c8c565b60405180910390fd5b60035f8373ffffffffffffffffffffffffffffffffffffffff1673ffffffffffffffffffffffffffffffffffffffff1681526020019081526020015f20549050919050565b60606001805461145b906134eb565b80601f0160208091040260200160405190810160405280929190818152602001828054611487906134eb565b80156114d25780601f106114a9576101008083540402835291602001916114d2565b820191905f5260205f20905b8154815290600101906020018083116114b557829003601f168201915b5050505050905090565b60605f60075490505f5f90505f600190505b82811161153e5760085f8281526020019081526020015f2060040160149054906101000a900460ff161561152b5781806115279061364d565b9250505b80806115369061364d565b9150506114ee565b505f8167ffffffffffffffff81111561155a576115596130fb565b5b60405190808252806020026020018201604052801561159357816020015b611580612a3c565b8152602001906001900390816115785790505b5090505f5f90505f600190505b8481116117925760085f8281526020019081526020015f2060040160149054906101000a900460ff161561177f5760085f8281526020019081526020015f206040518060c00160405290815f82015481526020016001820154815260200160028201805461160d906134eb565b80601f0160208091040260200160405190810160405280929190818152602001828054611639906134eb565b80156116845780601f1061165b57610100808354040283529160200191611684565b820191905f5260205f20905b81548152906001019060200180831161166757829003601f168201915b50505050508152602001600382015f9054906101000a900473ffffffffffffffffffffffffffffffffffffffff1673ffffffffffffffffffffffffffffffffffffffff1673ffffffffffffffffffffffffffffffffffffffff168152602001600482015f9054906101000a900473ffffffffffffffffffffffffffffffffffffffff1673ffffffffffffffffffffffffffffffffffffffff1673ffffffffffffffffffffffffffffffffffffffff1681526020016004820160149054906101000a900460ff16151515158152505083838151811061176557611764613694565b5b6020026020010181905250818061177b9061364d565b9250505b808061178a9061364d565b9150506115a0565b508194505050505090565b6117af6117a8611a82565b8383611e85565b5050565b6117be848484610999565b6117d26117c9611a82565b8585858561205e565b50505050565b60606117e3826119c3565b505f6117ed61220a565b90505f6117f984612220565b90505f82510361180d57809250505061184f565b5f81511115611841578181604051602001611829929190613c50565b6040516020818303038152906040529250505061184f565b61184a846122c1565b925050505b919050565b5f60055f8473ffffffffffffffffffffffffffffffffffffffff1673ffffffffffffffffffffffffffffffffffffffff1681526020019081526020015f205f8373ffffffffffffffffffffffffffffffffffffffff1673ffffffffffffffffffffffffffffffffffffffff1681526020019081526020015f205f9054906101000a900460ff16905092915050565b5f7f80ac58cd000000000000000000000000000000000000000000000000000000007bffffffffffffffffffffffffffffffffffffffffffffffffffffffff1916827bffffffffffffffffffffffffffffffffffffffffffffffffffffffff191614806119ac57507f5b5e139f000000000000000000000000000000000000000000000000000000007bffffffffffffffffffffffffffffffffffffffffffffffffffffffff1916827bffffffffffffffffffffffffffffffffffffffffffffffffffffffff1916145b806119bc57506119bb82612327565b5b9050919050565b5f5f6119ce83612390565b90505f73ffffffffffffffffffffffffffffffffffffffff168173ffffffffffffffffffffffffffffffffffffffff1603611a4057826040517f7e273289000000000000000000000000000000000000000000000000000000008152600401611a3791906132b6565b60405180910390fd5b80915050919050565b5f60045f8381526020019081526020015f205f9054906101000a900473ffffffffffffffffffffffffffffffffffffffff169050919050565b5f33905090565b611a9683838360016123c9565b505050565b5f73ffffffffffffffffffffffffffffffffffffffff168273ffffffffffffffffffffffffffffffffffffffff1603611b0b575f6040517f64a0ae92000000000000000000000000000000000000000000000000000000008152600401611b029190612c8c565b60405180910390fd5b5f611b1783835f611c03565b90505f73ffffffffffffffffffffffffffffffffffffffff168173ffffffffffffffffffffffffffffffffffffffff1603611b8957816040517f7e273289000000000000000000000000000000000000000000000000000000008152600401611b8091906132b6565b60405180910390fd5b8373ffffffffffffffffffffffffffffffffffffffff168173ffffffffffffffffffffffffffffffffffffffff1614611bfd578382826040517f64283d7b000000000000000000000000000000000000000000000000000000008152600401611bf4939291906135eb565b60405180910390fd5b50505050565b5f5f611c0e84612390565b90505f73ffffffffffffffffffffffffffffffffffffffff168373ffffffffffffffffffffffffffffffffffffffff1614611c4f57611c4e818486612588565b5b5f73ffffffffffffffffffffffffffffffffffffffff168173ffffffffffffffffffffffffffffffffffffffff1614611cda57611c8e5f855f5f6123c9565b600160035f8373ffffffffffffffffffffffffffffffffffffffff1673ffffffffffffffffffffffffffffffffffffffff1681526020019081526020015f205f82825403925050819055505b5f73ffffffffffffffffffffffffffffffffffffffff168573ffffffffffffffffffffffffffffffffffffffff1614611d5957600160035f8773ffffffffffffffffffffffffffffffffffffffff1673ffffffffffffffffffffffffffffffffffffffff1681526020019081526020015f205f82825401925050819055505b8460025f8681526020019081526020015f205f6101000a81548173ffffffffffffffffffffffffffffffffffffffff021916908373ffffffffffffffffffffffffffffffffffffffff160217905550838573ffffffffffffffffffffffffffffffffffffffff168273ffffffffffffffffffffffffffffffffffffffff167fddf252ad1be2c89b69c2b068fc378daa952ba7f163c4a11628f55a4df523b3ef60405160405180910390a4809150509392505050565b611e27828260405180602001604052805f81525061264b565b5050565b8060065f8481526020019081526020015f209081611e4991906138c9565b507ff8e1a15aba9398e019f0b49df1a4fde98ee17ae345cb5f6b5e2c27f5033e8ce782604051611e7991906132b6565b60405180910390a15050565b5f73ffffffffffffffffffffffffffffffffffffffff168373ffffffffffffffffffffffffffffffffffffffff1603611ef5575f6040517fa9fbf51f000000000000000000000000000000000000000000000000000000008152600401611eec9190612c8c565b60405180910390fd5b5f73ffffffffffffffffffffffffffffffffffffffff168273ffffffffffffffffffffffffffffffffffffffff1603611f6557816040517f5b08ba18000000000000000000000000000000000000000000000000000000008152600401611f5c9190612c8c565b60405180910390fd5b8060055f8573ffffffffffffffffffffffffffffffffffffffff1673ffffffffffffffffffffffffffffffffffffffff1681526020019081526020015f205f8473ffffffffffffffffffffffffffffffffffffffff1673ffffffffffffffffffffffffffffffffffffffff1681526020019081526020015f205f6101000a81548160ff0219169083151502179055508173ffffffffffffffffffffffffffffffffffffffff168373ffffffffffffffffffffffffffffffffffffffff167f17307eab39ab6107e8899845ad3d59bd9653f200f220920489ca2b5937696c31836040516120519190612b46565b60405180910390a3505050565b5f8373ffffffffffffffffffffffffffffffffffffffff163b1115612203578273ffffffffffffffffffffffffffffffffffffffff1663150b7a02868685856040518563ffffffff1660e01b81526004016120bc9493929190613cc5565b6020604051808303815f875af19250505080156120f757506040513d601f19601f820116820180604052508101906120f49190613d23565b60015b612178573d805f8114612125576040519150601f19603f3d011682016040523d82523d5f602084013e61212a565b606091505b505f81510361217057836040517f64a0ae920000000000000000000000000000000000000000000000000000000081526004016121679190612c8c565b60405180910390fd5b805160208201fd5b63150b7a0260e01b7bffffffffffffffffffffffffffffffffffffffffffffffffffffffff1916817bffffffffffffffffffffffffffffffffffffffffffffffffffffffff19161461220157836040517f64a0ae920000000000000000000000000000000000000000000000000000000081526004016121f89190612c8c565b60405180910390fd5b505b5050505050565b606060405180602001604052805f815250905090565b606060065f8381526020019081526020015f20805461223e906134eb565b80601f016020809104026020016040519081016040528092919081815260200182805461226a906134eb565b80156122b55780601f1061228c576101008083540402835291602001916122b5565b820191905f5260205f20905b81548152906001019060200180831161229857829003601f168201915b50505050509050919050565b60606122cc826119c3565b505f6122d661220a565b90505f8151116122f45760405180602001604052805f81525061231f565b806122fe8461266e565b60405160200161230f929190613c50565b6040516020818303038152906040525b915050919050565b5f7f01ffc9a7000000000000000000000000000000000000000000000000000000007bffffffffffffffffffffffffffffffffffffffffffffffffffffffff1916827bffffffffffffffffffffffffffffffffffffffffffffffffffffffff1916149050919050565b5f60025f8381526020019081526020015f205f9054906101000a900473ffffffffffffffffffffffffffffffffffffffff169050919050565b808061240157505f73ffffffffffffffffffffffffffffffffffffffff168273ffffffffffffffffffffffffffffffffffffffff1614155b15612533575f612410846119c3565b90505f73ffffffffffffffffffffffffffffffffffffffff168373ffffffffffffffffffffffffffffffffffffffff161415801561247a57508273ffffffffffffffffffffffffffffffffffffffff168173ffffffffffffffffffffffffffffffffffffffff1614155b801561248d575061248b8184611854565b155b156124cf57826040517fa9fbf51f0000000000000000000000000000000000000000000000000000000081526004016124c69190612c8c565b60405180910390fd5b811561253157838573ffffffffffffffffffffffffffffffffffffffff168273ffffffffffffffffffffffffffffffffffffffff167f8c5be1e5ebec7d5bd14f71427d1e84f3dd0314c0f7b2291e5b200ac8c7c3b92560405160405180910390a45b505b8360045f8581526020019081526020015f205f6101000a81548173ffffffffffffffffffffffffffffffffffffffff021916908373ffffffffffffffffffffffffffffffffffffffff16021790555050505050565b612593838383612738565b612646575f73ffffffffffffffffffffffffffffffffffffffff168373ffffffffffffffffffffffffffffffffffffffff160361260757806040517f7e2732890000000000000000000000000000000000000000000000000000000081526004016125fe91906132b6565b60405180910390fd5b81816040517f177e802f00000000000000000000000000000000000000000000000000000000815260040161263d929190613d4e565b60405180910390fd5b505050565b61265583836127f8565b612669612660611a82565b5f85858561205e565b505050565b60605f600161267c846128eb565b0190505f8167ffffffffffffffff81111561269a576126996130fb565b5b6040519080825280601f01601f1916602001820160405280156126cc5781602001600182028036833780820191505090505b5090505f82602083010190505b60011561272d578080600190039150507f3031323334353637383961626364656600000000000000000000000000000000600a86061a8153600a858161272257612721613d75565b5b0494505f85036126d9575b819350505050919050565b5f5f73ffffffffffffffffffffffffffffffffffffffff168373ffffffffffffffffffffffffffffffffffffffff16141580156127ef57508273ffffffffffffffffffffffffffffffffffffffff168473ffffffffffffffffffffffffffffffffffffffff1614806127b057506127af8484611854565b5b806127ee57508273ffffffffffffffffffffffffffffffffffffffff166127d683611a49565b73ffffffffffffffffffffffffffffffffffffffff16145b5b90509392505050565b5f73ffffffffffffffffffffffffffffffffffffffff168273ffffffffffffffffffffffffffffffffffffffff1603612868575f6040517f64a0ae9200000000000000000000000000000000000000000000000000000000815260040161285f9190612c8c565b60405180910390fd5b5f61287483835f611c03565b90505f73ffffffffffffffffffffffffffffffffffffffff168173ffffffffffffffffffffffffffffffffffffffff16146128e6575f6040517f73c6ac6e0000000000000000000000000000000000000000000000000000000081526004016128dd9190612c8c565b60405180910390fd5b505050565b5f5f5f90507a184f03e93ff9f4daa797ed6e38ed64bf6a1f0100000000000000008310612947577a184f03e93ff9f4daa797ed6e38ed64bf6a1f010000000000000000838161293d5761293c613d75565b5b0492506040810190505b6d04ee2d6d415b85acef81000000008310612984576d04ee2d6d415b85acef8100000000838161297a57612979613d75565b5b0492506020810190505b662386f26fc1000083106129b357662386f26fc1000083816129a9576129a8613d75565b5b0492506010810190505b6305f5e10083106129dc576305f5e10083816129d2576129d1613d75565b5b0492506008810190505b6127108310612a015761271083816129f7576129f6613d75565b5b0492506004810190505b60648310612a245760648381612a1a57612a19613d75565b5b0492506002810190505b600a8310612a33576001810190505b80915050919050565b6040518060c001604052805f81526020015f8152602001606081526020015f73ffffffffffffffffffffffffffffffffffffffff1681526020015f73ffffffffffffffffffffffffffffffffffffffff1681526020015f151581525090565b5f604051905090565b5f5ffd5b5f5ffd5b5f7fffffffff0000000000000000000000000000000000000000000000000000000082169050919050565b612ae081612aac565b8114612aea575f5ffd5b50565b5f81359050612afb81612ad7565b92915050565b5f60208284031215612b1657612b15612aa4565b5b5f612b2384828501612aed565b91505092915050565b5f8115159050919050565b612b4081612b2c565b82525050565b5f602082019050612b595f830184612b37565b92915050565b5f81519050919050565b5f82825260208201905092915050565b8281835e5f83830152505050565b5f601f19601f8301169050919050565b5f612ba182612b5f565b612bab8185612b69565b9350612bbb818560208601612b79565b612bc481612b87565b840191505092915050565b5f6020820190508181035f830152612be78184612b97565b905092915050565b5f819050919050565b612c0181612bef565b8114612c0b575f5ffd5b50565b5f81359050612c1c81612bf8565b92915050565b5f60208284031215612c3757612c36612aa4565b5b5f612c4484828501612c0e565b91505092915050565b5f73ffffffffffffffffffffffffffffffffffffffff82169050919050565b5f612c7682612c4d565b9050919050565b612c8681612c6c565b82525050565b5f602082019050612c9f5f830184612c7d565b92915050565b612cae81612c6c565b8114612cb8575f5ffd5b50565b5f81359050612cc981612ca5565b92915050565b5f5f60408385031215612ce557612ce4612aa4565b5b5f612cf285828601612cbb565b9250506020612d0385828601612c0e565b9150509250929050565b612d1681612bef565b82525050565b5f82825260208201905092915050565b5f612d3682612b5f565b612d408185612d1c565b9350612d50818560208601612b79565b612d5981612b87565b840191505092915050565b5f612d6e82612c4d565b9050919050565b612d7e81612d64565b82525050565b612d8d81612b2c565b82525050565b5f60c083015f830151612da85f860182612d0d565b506020830151612dbb6020860182612d0d565b5060408301518482036040860152612dd38282612d2c565b9150506060830151612de86060860182612d75565b506080830151612dfb6080860182612d75565b5060a0830151612e0e60a0860182612d84565b508091505092915050565b5f6020820190508181035f830152612e318184612d93565b905092915050565b5f5ffd5b5f5ffd5b5f5ffd5b5f5f83601f840112612e5a57612e59612e39565b5b8235905067ffffffffffffffff811115612e7757612e76612e3d565b5b602083019150836001820283011115612e9357612e92612e41565b5b9250929050565b5f5f5f5f5f60808688031215612eb357612eb2612aa4565b5b5f612ec088828901612cbb565b9550506020612ed188828901612cbb565b9450506040612ee288828901612c0e565b935050606086013567ffffffffffffffff811115612f0357612f02612aa8565b5b612f0f88828901612e45565b92509250509295509295909350565b612f2781612aac565b82525050565b5f602082019050612f405f830184612f1e565b92915050565b5f5f5f60608486031215612f5d57612f5c612aa4565b5b5f612f6a86828701612cbb565b9350506020612f7b86828701612cbb565b9250506040612f8c86828701612c0e565b9150509250925092565b5f81519050919050565b5f82825260208201905092915050565b5f819050602082019050919050565b5f60c083015f830151612fd45f860182612d0d565b506020830151612fe76020860182612d0d565b5060408301518482036040860152612fff8282612d2c565b91505060608301516130146060860182612d75565b5060808301516130276080860182612d75565b5060a083015161303a60a0860182612d84565b508091505092915050565b5f6130508383612fbf565b905092915050565b5f602082019050919050565b5f61306e82612f96565b6130788185612fa0565b93508360208202850161308a85612fb0565b805f5b858110156130c557848403895281516130a68582613045565b94506130b183613058565b925060208a0199505060018101905061308d565b50829750879550505050505092915050565b5f6020820190508181035f8301526130ef8184613064565b905092915050565b5f5ffd5b7f4e487b71000000000000000000000000000000000000000000000000000000005f52604160045260245ffd5b61313182612b87565b810181811067ffffffffffffffff821117156131505761314f6130fb565b5b80604052505050565b5f613162612a9b565b905061316e8282613128565b919050565b5f67ffffffffffffffff82111561318d5761318c6130fb565b5b61319682612b87565b9050602081019050919050565b828183375f83830152505050565b5f6131c36131be84613173565b613159565b9050828152602081018484840111156131df576131de6130f7565b5b6131ea8482856131a3565b509392505050565b5f82601f83011261320657613205612e39565b5b81356132168482602086016131b1565b91505092915050565b5f5f5f6060848603121561323657613235612aa4565b5b5f84013567ffffffffffffffff81111561325357613252612aa8565b5b61325f868287016131f2565b935050602061327086828701612c0e565b925050604084013567ffffffffffffffff81111561329157613290612aa8565b5b61329d868287016131f2565b9150509250925092565b6132b081612bef565b82525050565b5f6020820190506132c95f8301846132a7565b92915050565b5f602082840312156132e4576132e3612aa4565b5b5f6132f184828501612cbb565b91505092915050565b61330381612b2c565b811461330d575f5ffd5b50565b5f8135905061331e816132fa565b92915050565b5f5f6040838503121561333a57613339612aa4565b5b5f61334785828601612cbb565b925050602061335885828601613310565b9150509250929050565b5f67ffffffffffffffff82111561337c5761337b6130fb565b5b61338582612b87565b9050602081019050919050565b5f6133a461339f84613362565b613159565b9050828152602081018484840111156133c0576133bf6130f7565b5b6133cb8482856131a3565b509392505050565b5f82601f8301126133e7576133e6612e39565b5b81356133f7848260208601613392565b91505092915050565b5f5f5f5f6080858703121561341857613417612aa4565b5b5f61342587828801612cbb565b945050602061343687828801612cbb565b935050604061344787828801612c0e565b925050606085013567ffffffffffffffff81111561346857613467612aa8565b5b613474878288016133d3565b91505092959194509250565b5f5f6040838503121561349657613495612aa4565b5b5f6134a385828601612cbb565b92505060206134b485828601612cbb565b9150509250929050565b7f4e487b71000000000000000000000000000000000000000000000000000000005f52602260045260245ffd5b5f600282049050600182168061350257607f821691505b602082108103613515576135146134be565b5b50919050565b7f4f6e6c792073656c6c65722063616e2064656c697374000000000000000000005f82015250565b5f61354f601683612b69565b915061355a8261351b565b602082019050919050565b5f6020820190508181035f83015261357c81613543565b9050919050565b7f50726f7065727479206e6f74206c6973746564000000000000000000000000005f82015250565b5f6135b7601383612b69565b91506135c282613583565b602082019050919050565b5f6020820190508181035f8301526135e4816135ab565b9050919050565b5f6060820190506135fe5f830186612c7d565b61360b60208301856132a7565b6136186040830184612c7d565b949350505050565b7f4e487b71000000000000000000000000000000000000000000000000000000005f52601160045260245ffd5b5f61365782612bef565b91507fffffffffffffffffffffffffffffffffffffffffffffffffffffffffffffffff820361368957613688613620565b5b600182019050919050565b7f4e487b71000000000000000000000000000000000000000000000000000000005f52603260045260245ffd5b7f5072696365206d757374206265206174206c65617374203120776569000000005f82015250565b5f6136f5601c83612b69565b9150613700826136c1565b602082019050919050565b5f6020820190508181035f830152613722816136e9565b9050919050565b5f819050815f5260205f209050919050565b5f6020601f8301049050919050565b5f82821b905092915050565b5f600883026137857fffffffffffffffffffffffffffffffffffffffffffffffffffffffffffffffff8261374a565b61378f868361374a565b95508019841693508086168417925050509392505050565b5f819050919050565b5f6137ca6137c56137c084612bef565b6137a7565b612bef565b9050919050565b5f819050919050565b6137e3836137b0565b6137f76137ef826137d1565b848454613756565b825550505050565b5f5f905090565b61380e6137ff565b6138198184846137da565b505050565b5b8181101561383c576138315f82613806565b60018101905061381f565b5050565b601f8211156138815761385281613729565b61385b8461373b565b8101602085101561386a578190505b61387e6138768561373b565b83018261381e565b50505b505050565b5f82821c905092915050565b5f6138a15f1984600802613886565b1980831691505092915050565b5f6138b98383613892565b9150826002028217905092915050565b6138d282612b5f565b67ffffffffffffffff8111156138eb576138ea6130fb565b5b6138f582546134eb565b613900828285613840565b5f60209050601f831160018114613931575f841561391f578287015190505b61392985826138ae565b865550613990565b601f19841661393f86613729565b5f5b8281101561396657848901518255600182019150602085019450602081019050613941565b86831015613983578489015161397f601f891682613892565b8355505b6001600288020188555050505b505050505050565b5f60a0820190506139ab5f8301886132a7565b81810360208301526139bd8187612b97565b90506139cc6040830186612c7d565b6139d96060830185612c7d565b6139e66080830184612b37565b9695505050505050565b7f50726f7065727479206e6f74206c697374656420666f722073616c65000000005f82015250565b5f613a24601c83612b69565b9150613a2f826139f0565b602082019050919050565b5f6020820190508181035f830152613a5181613a18565b9050919050565b7f506c656173652073656e64207468652065786163742061736b696e67207072695f8201527f6365000000000000000000000000000000000000000000000000000000000000602082015250565b5f613ab2602283612b69565b9150613abd82613a58565b604082019050919050565b5f6020820190508181035f830152613adf81613aa6565b9050919050565b5f81905092915050565b50565b5f613afe5f83613ae6565b9150613b0982613af0565b5f82019050919050565b5f613b1d82613af3565b9150819050919050565b7f455448207472616e7366657220746f2073656c6c6572206661696c65640000005f82015250565b5f613b5b601d83612b69565b9150613b6682613b27565b602082019050919050565b5f6020820190508181035f830152613b8881613b4f565b9050919050565b5f613ba9613ba4613b9f84612c4d565b6137a7565b612c4d565b9050919050565b5f613bba82613b8f565b9050919050565b5f613bcb82613bb0565b9050919050565b613bdb81613bc1565b82525050565b5f606082019050613bf45f830186613bd2565b613c016020830185612c7d565b613c0e60408301846132a7565b949350505050565b5f81905092915050565b5f613c2a82612b5f565b613c348185613c16565b9350613c44818560208601612b79565b80840191505092915050565b5f613c5b8285613c20565b9150613c678284613c20565b91508190509392505050565b5f81519050919050565b5f82825260208201905092915050565b5f613c9782613c73565b613ca18185613c7d565b9350613cb1818560208601612b79565b613cba81612b87565b840191505092915050565b5f608082019050613cd85f830187612c7d565b613ce56020830186612c7d565b613cf260408301856132a7565b8181036060830152613d048184613c8d565b905095945050505050565b5f81519050613d1d81612ad7565b92915050565b5f60208284031215613d3857613d37612aa4565b5b5f613d4584828501613d0f565b91505092915050565b5f604082019050613d615f830185612c7d565b613d6e60208301846132a7565b9392505050565b7f4e487b71000000000000000000000000000000000000000000000000000000005f52601260045260245ffdfea2646970667358221220aa65f9498235a31713918c1d33cae88af725e3556df4ca0d191fa08bb9b2dfa064736f6c634300081c0033",
  "linkReferences": {},
  "deployedLinkReferences": {}
}